{
  "contractName": "Ownable",
  "abi": [
    {
      "inputs": [],
      "stateMutability": "nonpayable",
      "type": "constructor"
    },
    {
      "inputs": [],
      "name": "isOwner",
      "outputs": [
        {
          "internalType": "bool",
          "name": "",
          "type": "bool"
        }
      ],
      "stateMutability": "view",
      "type": "function"
    }
  ],
  "bytecode": "0x6080604052348015600f57600080fd5b50336000806101000a81548173ffffffffffffffffffffffffffffffffffffffff021916908373ffffffffffffffffffffffffffffffffffffffff16021790555060da8061005e6000396000f3fe6080604052348015600f57600080fd5b506004361060285760003560e01c80638f32d59b14602d575b600080fd5b6033604d565b604051808215151515815260200191505060405180910390f35b60008060009054906101000a900473ffffffffffffffffffffffffffffffffffffffff1673ffffffffffffffffffffffffffffffffffffffff163373ffffffffffffffffffffffffffffffffffffffff161490509056fea26469706673582212204fc0128430951b21799e305ae5957e6af83e2faa93526c04e0dc630e6ff9c51f64736f6c63430006010033",
  "source": "pragma solidity ^0.6.0;\r\n\r\n\r\n/* \r\n    Implementing an ownable functionality\r\n    To check https://github.com/OpenZeppelin/openzeppelin-contracts/blob/master/contracts/access/Ownable.sol\r\n*/\r\ncontract Ownable{\r\n    address payable _owner;\r\n    \r\n    constructor() public{\r\n        _owner = msg.sender;\r\n    }\r\n    \r\n    /* === This is all linked togehter === */\r\n    /* A modifier \"frames/packs\" certain reusable functionality */\r\n    modifier onlyOwner(){\r\n        require(isOwner(), \"You're not the owner\");\r\n        _;\r\n    }\r\n    \r\n    function isOwner() public view returns(bool){\r\n        return (msg.sender == _owner);\r\n    }\r\n    /* === This is all linked togehter === */\r\n    \r\n}\r\n",
  "sourcePath": "c:\\dev1\\smart_contracts\\truffle_example1\\contracts\\Ownable.sol",
  "compiler": {
    "name": "solc",
    "version": "0.6.1+commit.e6f7d5a4.Emscripten.clang"
  },
  "schemaVersion": "3.4.1",
  "updatedAt": "2021-05-27T19:34:09.632Z",
  "devdoc": {
    "methods": {}
  },
  "userdoc": {
    "methods": {}
  }
}